:060000000A128A110C280F
:10000800FE00030EF2000A08F3000A128A111628ED
:100018000A128A110F28F701F801F90183010A125F
:100028008A11F228831203138C1D1B281C287028A0
:100038001412141B202821282528941F2428252839
:100048002C281308F1007108F900141394131416DE
:1000580083160313941A312832284D281419352889
:1000680036284D28831203131308F1007108F9008C
:100078008C11141683160313141C432844283E2895
:1000880083120313130888005330F100F10B4A2838
:100098006D28941A502851286D28141D5428552865
:1000A8006D28831203131308F1007108F9008316F1
:1000B8000313141083120313060893001416533005
:1000C800F100F10B65288316031314186C286D28AA
:1000D8006728831203138C110C1F732874287C283B
:1000E8000A128A111E210A128A118312031386002A
:1000F80073088A00720E8300FE0E7E0E090001301E
:1001080083160317880089010130831603138500BD
:100118008601F03088008312031385018601880167
:1001280004300A128A1110210A128A1150300A1258
:100138008A11D8200A128A110B178B1783120313FE
:100148000C13831603130C17F401F50101300A127E
:100158008A11B1200A128A11080083120313A00021
:1001680020080339F600F60EF60DF60D1F08760680
:100178003F3976069F001F14740C83160313031C63
:100188009F1203189F16750C031C1F1203181F16C5
:100198000C17831203130C13C730F600D328F60B81
:1001A800D228D628D7280800F40074088316031329
:1001B80093003630831203139400803083160313A0
:1001C800940001309100871507168B170B178312BF
:1001D80003138C11831603138C1508000A128A1155
:1001E80083200A128A1100300A128A1101210A1288
:1001F8008A11F7280A128A110C28F50075080F3998
:10020800F400F40DF40D831203131F087406C339A8
:1002180074069F009F140800F50075080739F4005C
:10022800F40E831603130F0874068F3974068F00B3
:100238000F140800831203130C131E08F000700833
:06024800F7007708080032
:08400000FF3FFF3FFF3FFF3FC0
:04400E00D420FF3F7C
:00000001FF
